S00D00004C425F30312E73726563C9
S11300000C942A000C9447000C9447000C9447006D
S11300100C9447000C9447000C9447000C94470040
S11300200C9447000C9447000C9447000C94470030
S11300300C9447000C947B020C9428020C94470007
S11300400C9447000C9447000C9447000C94470010
S11300500C94470011241FBECFE5D8E0DEBFCDBF0E
S113006012E0A0E6B0E0E0E0F0E102C005900D92FD
S1130070A630B107D9F723E0A6E0B2E001C01D9293
S1130080AA31B207E1F70E94BD040C94FE070C9458
S113009000001F93CF93DF93EC0110E004C00E9493
S11300A0F30121961F5F88818111F9CF812FDF91A0
S11300B0CF911F910895AF92BF92CF92DF92EF92AA
S11300C0FF920F931F93CF93DF93CDB7DEB78E01CB
S11300D0035F1F4FF801A190B1908F01CDB6DEB63A
S11300E00E9474012DB73EB7281B31090FB6F8944E
S11300F03EBF0FBE2DBF8DB79EB701967C010E94F7
S11301007401682F70E09801A501C7010E940A05D7
S1130110182F882349F00E947401181738F4C70176
S11301200E944900812F03C080E001C080E00FB627
S1130130F894DEBE0FBECDBEDF91CF911F910F911B
S1130140FF90EF90DF90CF90BF90AF900895AF9263
S1130150BF92CF92DF92EF92FF920F931F93CF93B0
S1130160DF93CDB7DEB78E01035F1F4FF801A19077
S1130170B1908F01CDB6DEB60E9474012DB73EB7A3
S1130180281B31090FB6F8943EBF0FBE2DBF8DB7A3
S11301909EB701967C010E947401682F70E098015B
S11301A0A501C7010E940A058C01882399F00E94C9
S11301B0740190E00297980133272817390750F407
S11301C0C7010E9449008AE990E00E94490082E048
S11301D0800F05C08AE990E00E94490082E00FB6D2
S11301E0F894DEBE0FBECDBEDF91CF911F910F916B
S11301F0FF90EF90DF90CF90BF90AF90089580E88C
S113020008958AB180618AB98AB180688AB90895EB
S11302108AB188608AB908958AB180628AB90895DA
S11302208AB18F7D8AB908959C0180E992E040E803
S11302304093100390931603809315036FE073E0CB
S11302407093180360931703909312038093110320
S113025090931403809313031092190386E092E0A1
S11302604093860290938C0280938B0245E852E07F
S113027050938E0240938D0290938802809387025C
S113028090938A028093890210928F02C901A0E0A0
S1130290B0E0880F991FAA1FBB1F880F991FAA1FC0
S11302A0BB1F9C01AD01220F331F441F551F220F9A
S11302B0331F441F551F60E072E18AE790E00E94FB
S11302C0DA04DA01C9010197A109B10989B9892FB1
S11302D09A2FAB2FBB2780BD0E9401010E94080109
S11302E0089580911903089586E092E00E94FF002A
S11302F090918F02891B0895CF93DF93DC01909135
S11303001903911102C021E001C020E0211123C092
S1130310915090931903E1E1F3E0C081D181888188
S11303208C93808191812091170330911803821757
S1130330930751F48091150390911603909312033F
S11303408093110381E008C0019690931203809377
S1130350110381E001C080E0DF91CF910895CF9334
S1130360DF93FC0140E050E080E035C09091190338
S1130370911102C021E001C020E0211125C091505B
S113038090931903A1E1B3E0CD91DC911197988189
S113039090832D913C91A0911703B09118032A17D3
S11303A03B0751F420911503309116033093120347
S11303B02093110391E009C02F5F3F4F3093120344
S11303C02093110391E001C090E0992349F08F5FDD
S11303D031964F5F5F4F262F30E04217530734F2B8
S11303E0DF91CF910895CF9390918F02209186024F
S11303F0921302C021E001C020E0211122C09F5FBE
S113040090938F02E9E8F2E0A081B1818C9380811E
S1130410918120918D0230918E028217930751F4BD
S113042080918B0290918C0290938A02809389022E
S1130430C1E008C0019690938A0280938902C1E0CA
S113044001C0C0E0C1110E940C018C2FCF9108950E
S11304501F920F920FB60F9211242F933F934F9335
S11304605F936F937F938F939F93AF93BF93EF9318
S1130470FF9380918F02811102C091E001C090E04E
S1130480911120C0815080938F02E0918702F091F6
S11304908802908120918D0230918E02E217F30739
S11304A051F420918B0230918C0230938802209376
S11304B0870281E009C03196F0938802E0938702B5
S11304C081E002C090E080E0882311F09CB902C072
S11304D00E941001FF91EF91BF91AF919F918F9175
S11304E07F916F915F914F913F912F910F900FBE2C
S11304F00F901F9018951F920F920FB60F92112410
S11305002F933F938F939F93AF93BF93EF93FF9357
S11305102CB18091190390911003891302C091E0CA
S113052001C090E091111FC08F5F80931903E3E134
S1130530F3E0A081B1812C938081918120911703F4
S1130540309118038217930749F480911503909111
S11305501603909314038093130305C0019690939C
S1130560140380931303FF91EF91BF91AF919F9177
S11305708F913F912F910F900FBE0F901F90189560
S1130580CF930E947101C1E08111C0E00E94740107
S113059091E08F3708F490E08C2F8923CF91089550
S11305A01F93CF93DF931F92CDB7DEB789E40E94E8
S11305B0F301182F8FE40E94F30118232FEF80E733
S11305C092E0215080409040E1F700C000000E947A
S11305D0710191E0823009F090E019231982CE0173
S11305E001960E947C0191E02981293409F090E070
S11305F018231923CE0101960E947C01982F81E0D3
S113060029812F3409F080E0912389230F90DF9111
S1130610CF911F9108951F93CF93DF93CDB7DEB78A
S11306202A970FB6F894DEBF0FBECDBF84E30E94B5
S1130630F301182F2FEF80E792E021508040904083
S1130640E1F700C000000E94710191E0813009F0DF
S113065090E01923CE0101962AE0FC0111922A951B
S1130660E9F760E00E94AF0191E0811190E0192365
S11306700E94710191E0813009F090E0812F89237B
S11306802A960FB6F894DEBF0FBECDBFDF91CF918F
S11306901F910895FF920F931F93CF93DF931F929F
S11306A0CDB7DEB7F8940E947401F82E81E000E023
S11306B004C080E40E94F301080F8111FACF11E015
S11306C00F1110E078942FEF84E39CE021508040D8
S11306D09040E1F700C00000F12C0DC01982CE015A
S11306E001960E947C01812311E09981903409F0E4
S11306F010E01823F394F01688F3812F0F90DF9104
S1130700CF911F910F91FF900895CF92DF92EF92B6
S1130710FF920F931F93CF93DF93CDB7DEB7CF5FD5
S1130720D1090FB6F894DEBF0FBECDBF6C017B01BB
S11307302FEF84E39CE0215080409040E1F700C01B
S11307400000FE0131968FEFDF011D928A95E9F7D3
S11307500E94710190E001E08E159F0509F000E010
S11307606FEFCE0101960E94AF0190E011E08E156B
S11307709F0509F010E0A701BE016F5F7F4FC6011E
S11307800E94FC0421E0892B09F020E0802F8123C2
S11307908223C150DF4F0FB6F894DEBF0FBECDBF2A
S11307A0DF91CF911F910F91FF90EF90DF90CF9049
S11307B00895CF9380E790E00E944900C1E08C3215
S11307C009F0C0E06CE270E080E790E00E948503ED
S11307D08C23CF910895CF9384E691E09F938F93D8
S11307E08DE990E09F938F9389EA90E09F938F9394
S11307F081EB90E09F938F930E945B00C1E02DB743
S11308003EB7285F3F4F0FB6F8943EBF0FBE2DBFD3
S11308108B3609F0C0E06BE670E085E091E00E9461
S113082085038C23CF910895CF9381E791E09F9323
S11308308F930E94A700C1E00F900F908A3409F0B3
S1130840C0E06AE470E08AEB91E00E9485038C23A7
S1130850CF910895CF938CE990E09F938F930E945A
S1130860A700C1E00F900F90823009F0C0E0682F1C
S113087070E08AE990E00E9485038C23CF9108956B
S1130880CF93DF931F92CDB7DEB781E004C0CE01D2
S113089001960E947C018111FACF0F90DF91CF91D4
S11308A0089520E020C0322F377080E890E002C025
S11308B0959587953A95E2F7922F96959695969504
S11308C04FEF50E002C0440F551F9A95E2F7852B75
S11308D08BBB3FEB84ED91E0315080409040E1F7D9
S11308E000C000002F5F2634F0F21BBA08950F9366
S11308F01F93CF93DF93CDB7DEB760970FB6F8940D
S1130900DEBF0FBECDBF80E1E0E6F0E0DE01119670
S113091001900D928A95E1F710E000E020C0E12FEC
S1130920F0E0EE0FFF1F81E090E08C0F9D1FE80FB9
S1130930F91F0190F081E02D099581110DC081E02E
S113094090E0A0E0B0E0012E04C0880F991FAA1F18
S1130950BB1F0A94D2F7082B0E9440041F5F183073
S1130960F0F2802F60960FB6F894DEBF0FBECDBFB5
S1130970DF91CF911F910F9108958FEF8ABB1BBA1E
S113098060E080E895E20E94140178942FE78AE100
S113099096E0215080409040E1F700C000000E94A2
S11309A07704882311F08BBB02C00E9451040E947B
S11309B04004ECCFA1E21A2EAA1BBB1BFD010DC003
S11309C0AA1FBB1FEE1FFF1FA217B307E407F507FB
S11309D020F0A21BB30BE40BF50B661F771F881FD7
S11309E0991F1A9469F760957095809590959B016D
S11309F0AC01BD01CF010895FB01DC014150504021
S1130A0030F08D910190801919F40020B9F7881BFA
S1130A10990B0895AEE0B0E0E0E1F5E00C94D50761
S1130A208C01FA0186E08C831A83098377FF02C064
S1130A3060E070E8CB0101979E838D83A901BF011B
S1130A40CE0101960E9436054D815E8157FD0AC094
S1130A502F813885421753070CF49A01F801E20FED
S1130A60F31F10822E96E4E00C94F107ABE0B0E0A3
S1130A70ECE3F5E00C94C7076C017B018A01FC01EF
S1130A8017821682838181FFCCC1CE0101963C017D
S1130A90F6019381F70193FD859193FF81917F0185
S1130AA0882309F4BAC1853239F493FD859193FF03
S1130AB081917F01853229F4B60190E00E942D07CF
S1130AC0E7CF912C212C312CFFE1F315D8F08B3298
S1130AD079F038F4803279F08332A1F4232D206147
S1130AE01DC08D3261F0803369F4232D216016C05E
S1130AF0832D8260382EE32DE4603E2E2AC0F32D30
S1130B00F8601DC037FC2DC020ED280F2A3040F0BE
S1130B108E32B9F436FC81C1232D2064322E19C0E3
S1130B2036FE06C08AE0989E200D1124922E11C034
S1130B30EAE02E9E200D1124222EF32DF0623F2E8A
S1130B4008C08C3621F4832D8068382E02C0883684
S1130B5041F4F70193FD859193FF81917F01811108
S1130B60B3CF982F9F7D9554933028F40C5F1F4F7B
S1130B709FE399830DC0833631F0833771F0833559
S1130B8009F059C021C0F801808189830E5F1F4F8D
S1130B9088248394912C530113C02801F2E04F0E52
S1130BA0511CF801A080B18036FE03C0692D70E0AD
S1130BB002C06FEF7FEFC5010E9422074C01820142
S1130BC0F32DFF773F2E16C0280122E0420E511C60
S1130BD0F801A080B18036FE03C0692D70E002C028
S1130BE06FEF7FEFC5010E9417074C01F32DF068EA
S1130BF03F2E820133FC1BC0822D90E0881699069B
S1130C00B0F4B60180E290E00E942D072A94F4CF5C
S1130C10F50137FC859137FE81915F01B60190E0C3
S1130C200E942D0721102A9421E0821A9108811430
S1130C30910471F7E8C0843611F0893641F5F80162
S1130C4037FE07C060817181828193810C5F1F4FE1
S1130C5008C060817181072E000C880B990B0E5F10
S1130C601F4FF32DFF763F2E97FF09C09095809577
S1130C70709561957F4F8F4F9F4FF0683F2E2AE00C
S1130C8030E0A3010E946907882E861845C0853785
S1130C9031F4232D2F7EB22E2AE030E025C0932D8F
S1130CA0997FB92E8F36C1F018F4883579F0B5C024
S1130CB0803719F0883721F0B0C0E92FE061BE2EEB
S1130CC0B4FE0DC0FB2DF460BF2E09C034FE0AC073
S1130CD0292F2660B22E06C028E030E005C020E1AE
S1130CE030E002C020E132E0F801B7FE07C06081C5
S1130CF07181828193810C5F1F4F06C06081718175
S1130D0080E090E00E5F1F4FA3010E946907882EC8
S1130D108618FB2DFF773F2E36FE0DC0232D2E7F28
S1130D20A22E891458F434FE0BC032FC09C0832D62
S1130D308E7EA82E05C0B82CA32C03C0B82C01C0ED
S1130D40B92CA4FE0FC0FE01E80DF11D8081803393
S1130D5021F49A2D997EA92E09C0A2FE06C0B3944F
S1130D60B39404C08A2D867809F0B394A3FC11C00F
S1130D70A0FE06C0B21488F4280C922C9B180EC056
S1130D80B21460F4B60180E290E00E942D07B3949F
S1130D90F7CFB21418F42B1802C0982C212CA4FEFF
S1130DA010C0B60180E390E00E942D07A2FE17C098
S1130DB0A1FC03C088E790E002C088E590E0B6019A
S1130DC00CC08A2D867859F0A1FE02C08BE201C0C6
S1130DD080E2A7FC8DE2B60190E00E942D07891401
S1130DE038F4B60180E390E00E942D079A94F7CF7F
S1130DF08A94F301E80DF11D8081B60190E00E9410
S1130E002D078110F5CF222009F442CEB60180E2ED
S1130E1090E00E942D072A94F6CFF60186819781EF
S1130E2002C08FEF9FEF2B96E2E10C94E307FC01E5
S1130E300590615070400110D8F7809590958E0F01
S1130E409F1F0895FC016150704001900110D8F774
S1130E50809590958E0F9F1F08950F931F93CF93A6
S1130E60DF93FB01238121FD03C08FEF9FEF2CC093
S1130E7022FF16C0468157812481358142175307CA
S1130E8044F4A081B1819D012F5F3F4F31832083C2
S1130E908C93268137812F5F3F4F3783268314C07D
S1130EA08B01EC01FB010084F185E02D0995892B70
S1130EB0E1F6D80116968D919C9117970196179695
S1130EC09C938E931697CE01DF91CF911F910F9132
S1130ED00895FA01AA27283051F1203181F1E894CC
S1130EE06F936E7F6E5F7F4F8F4F9F4FAF4FB1E019
S1130EF03ED0B4E03CD0670F781F891F9A1FA11D14
S1130F00680F791F8A1F911DA11D6A0F711D811D14
S1130F10911DA11D20D009F468943F912AE0269FD9
S1130F2011243019305D3193DEF6CF010895462F38
S1130F304770405D4193B3E00FD0C9F7F6CF462F19
S1130F404F70405D4A3318F0495D31FD4052419382
S1130F5002D0A9F7EACFB4E0A6959795879577953F
S1130F606795BA95C9F700976105710508959B01C6
S1130F70AC010A2E06945795479537952795BA954F
S1130F80C9F7620F731F841F951FA01D08952F9228
S1130F903F924F925F926F927F928F929F92AF9205
S1130FA0BF92CF92DF92EF92FF920F931F93CF9352
S1130FB0DF93CDB7DEB7CA1BDB0B0FB6F894DEBFE9
S1130FC00FBECDBF09942A88398848885F846E840F
S1130FD07D848C849B84AA84B984C884DF80EE8059
S1130FE0FD800C811B81AA81B981CE0FD11D0FB662
S1130FF0F894DEBF0FBECDBFED010895F894FFCF86
S1131000C002D0020B03D903EB0314044A032A04DD
S11310100D0A546865204D6F6F6E206973206573E7
S113102073656E7469616C6C792067726179202DC7
S1131030206E6F20636F6C6F722E0D0A00666F63F3
S1131040616C20706F696E74007468652073756ECE
S1131050004C6974746C6520776F6E6465722074DB
S1131060686174206F757220737461722C2025730B
S11310702C20686173206265656E20746865202584
S113108073206F6620736369656E74696669632093
S1131090696E7665737469676174696F6E20666FD3
S11310A072202573004C6974746C6520776F6E64CC
S11310B065722074686174206F7572207374617234
S11310C02C207468652073756E2C2068617320620F
S11310D065656E2074686520666F63616C20706F4F
S11310E0696E74206F6620736369656E74696669DE
S11310F06320696E7665737469676174696F6E20C5
S1131100666F722063656E7475726965732E0D0A5D
S11311100042657474657220746F206C696768742A
S1131120206F6E652063616E646C65207468616E07
S113113020746F2063757273652074686520646120
S1131140726B6E6573732E202D204368696E657310
S1131150652050726F7665726200426574746572C0
S113116020746F206C69676874206F6E65206361FA
S11311706E646C65207468616E20746F2063757290
S1131180736520746865206461726B6E6573732E79
S1131190202D204368696E6573652050726F7665F3
S10911A072620D0A00005A
S9030000FC
