S00F000050726F6A656B742E7372656336
S11300000C9432000C944A020C944F000C944F0050
S11300100C944F000C944F000C944F000C944F0020
S11300200C944F000C944F000C9447040C944F0014
S11300300C9454030C94E7050C9494050C944F0011
S11300400C944F000C944F000C944F000C944F00F0
S11300500C944F00C100C400C800CC00D000D400F0
S1130060D800DC0011241FBECFE5D8E0DEBFCDBF31
S113007011E0A0E6B0E0E2E0FAE102C005900D92E2
S1130080A432B107D9F723E0A4E2B1E001C01D9284
S1130090AA35B207E1F70E943E070C94FF0C0C94BA
S11300A0000062E08FE10E942D010E94F3000E9493
S11300B0FE0108950E94E7000895CF92DF92EF9227
S11300C0FF92CF93DF93CDB7DEB728970FB6F8949E
S11300D0DEBF0FBECDBFBE016B5F7F4FCE01019669
S11300E00E940C02C980DA80EB80FC80F694E794CD
S11300F0D794C7946D817E818F81988520E432E402
S11301004FE050E00E94B509C701B6010E94B5094D
S1130110ACE3B0E00E94DD0928960FB6F894DEBF88
S11301200FBECDBFDF91CF91FF90EF90DF90CF90C6
S1130130089585B58F7D85BD85B58F7E85BD089570
S113014086B1826086B986B1846086B987B18064DD
S113015087B987B18F7787B986B1806886B987B147
S1130160806287B90895E82F87B1807E87B98E2F82
S113017090E08830910518F5FC01E65DFF4F0C9482
S1130180D70987B187B9089587B1816087B9089580
S113019087B1826087B9089587B1836087B908956C
S11301A087B1846087B9089587B1856087B9089558
S11301B087B1866087B9089587B1876087B9089544
S11301C086B1806486B93699FECF85B108958F31A2
S11301D009F463BD089586958695869590E0089503
S11301E0877090E00895CF92DF92EF92FF928FE1B3
S11301F00E94F000C12CD12C7601C39404C0CC0C15
S1130200DD1CEE1CFF1C8A95D2F78FE10E94EB00E7
S1130210880F991FFC01E859FF4F0190F081E02DF0
S11302208081C82AC08285B5886085BD85B5806413
S113023085BD85B5806285BD85B58F7E85BD85B557
S1130240846085BD85B5826085BD85B58E7F85BD9D
S1130250FF90EF90DF90CF900895CF92DF92EF92CE
S1130260FF92CF93C82F613009F58F3111F40E94AA
S113027099008C2F0E94F000C12CD12C7601C394DC
S113028004C0CC0CDD1CEE1CFF1C8A95D2F78C2F0D
S11302900E94EB00880F991FFC01E859FF4F019061
S11302A0F081E02D8081C82AC08229C0611120C05C
S11302B00E94F000C12CD12C7601C39404C0CC0C54
S11302C0DD1CEE1CFF1C8A95D2F7C094D094E094F8
S11302D0F0948C2F0E94EB00880F991FFC01E859C1
S11302E0FF4F0190F081E02D8081C822C08207C0B9
S11302F0623029F48F3119F40E94F30013BCCF91BA
S1130300FF90EF90DF90CF900895CF93883068F4FA
S1130310C82F0E94A00060E08C2F0E942D018C2F1A
S11303200E94B3000E94E00001C080E0CF910895D4
S1130330CF92DF92EF92FF92CF93C82F6130E1F416
S11303400E94F000C12CD12C7601C39404C0CC0CC3
S1130350DD1CEE1CFF1C8A95D2F78C2F0E94EB004B
S1130360880F991FFC01E05AFF4F0190F081E02DA6
S11303708081C82AC08221C061111FC00E94F00080
S1130380C12CD12C7601C39404C0CC0CDD1CEE1C12
S1130390FF1C8A95D2F7C094D094E094F0948C2FEB
S11303A00E94EB00880F991FFC01E05AFF4F019057
S11303B0F081E02D8081C822C082CF91FF90EF9020
S11303C0DF90CF9008959FB7F89481E009C0109210
S11303D038021092390210923A0210923B0280E0E5
S11303E08111F5CF9FBF0E94DB0360933C027093A1
S11303F03D0280933E0290933F0208950E94C603FB
S11304000E94E30185B7826085BF85B78E7F85BF73
S11304108BB780648BBF0895CF92DF92EF92FF92E7
S11304200F931F93CF93DF93EC018B010E94DB03A7
S1130430C0903C02D0903D02E0903E02F0903F021A
S1130440AB01BC014C195D096E097F092FB7F89403
S113045081E00DC08091380290913902A0913A0256
S1130460B0913B0288839983AA83BB8380E0811186
S1130470F1CF2FBFF80140835183628373830E94BD
S1130480E301DF91CF911F910F91FF90EF90DF90E7
S1130490CF9008951F920F920FB60F9211248F934D
S11304A09F93AF93BF938091380290913902A091AA
S11304B03A02B0913B020196A11DB11D809338020E
S11304C090933902A0933A02B0933B02BF91AF914B
S11304D09F918F910F900FBE0F901F90189580E4FD
S11304E092E020E82093C0029093C6028093C50254
S11304F04FEB52E05093C8024093C7029093C2025C
S11305008093C1029093C4028093C3021092C902E3
S11305108AEC92E020934A039093500380934F0314
S113052029E433E0309352032093510390934C0316
S113053080934B0390934E0380934D031092530387
S113054060E08FE00E942D0160E08DE00E942D01AB
S113055060E08CE00E942D0161E08EE00E942D019C
S11305608DB18F7E8DB98DB1877F8DB98DB18B7F24
S11305708DB98DB180648DB98DB180688DB91FB886
S113058008958091C902811102C081E001C080E018
S1130590882311F080E0089581E00895CF93DF93DC
S11305A0EC010E94C102882391F16FB7F89491E0A5
S11305B02BC09091C902911102C0282F01C020E0E4
S11305C0211121C091509093C902E1ECF2E0A08185
S11305D0B1819C919883208131814091C7025091CF
S11305E0C8022417350749F42091C5023091C60288
S11305F03093C2022093C10206C02F5F3F4F309355
S1130600C2022093C10290E09111D3CF6FBFDF915A
S1130610CF9108959091530380914A03981302C097
S113062081E001C080E0882311F080E0089581E03A
S11306300895CF93C82F0E940A03882399F16FB7B6
S1130640F89491E02CC09091530320914A0329130C
S113065002C0282F01C020E0211120C09F5F909389
S11306605303EDE4F3E0A081B181CC932081318187
S113067040915103509152032417350749F42091B6
S11306804F033091500330934E0320934D0306C023
S11306902F5F3F4F30934E0320934D0390E0911111
S11306A0D2CF6FBFCF9108951F920F920FB60F92C2
S11306B011242F933F938F939F93AF93BF93EF9303
S11306C0FF932FB18091C9029091C002891302C097
S11306D091E001C090E091111FC08F5F8093C90227
S11306E0E3ECF2E0A081B1812C938081918120918F
S11306F0C7023091C8028217930749F48091C5025A
S11307009091C6029093C4028093C30205C00196DF
S11307109093C4028093C30280915303811102C059
S113072091E001C090E0911120C081508093530367
S1130730E0914B03F0914C0390812091510330914F
S11307405203E217F30751F420914F033091500301
S113075030934C0320934B0381E009C03196F0930E
S11307604C03E0934B0381E002C090E080E08111F0
S11307709FB9FF91EF91BF91AF919F918F913F915D
S11307802F910F900FBE0F901F90189583B788601C
S113079083BF83B78F7B83BF83B7816083BF83B7F6
S11307A0826083BF83B78B7F83BF89EF8CBF89B798
S11307B0826089BF0895CF92DF92EF92FF929FB734
S11307C0F89481E0C12CD12C760120E030E0A9011D
S11307D00DC020915403309155034091560350911C
S11307E05703C2B6D12CE12CF12C80E08111F1CF5A
S11307F09FBFA0EDB7E00E94DD09CC0CDD1CEE1C10
S1130800FF1CCC0CDD1CEE1CFF1CCC0CDD1CEE1CF8
S1130810FF1C6C0D7D1D8E1D9F1DFF90EF90DF90C2
S1130820CF9008956CB7669570E080E090E00E94E8
S113083050080E948B080E941F08262F3FB7F89487
S113084081E090E040E050E0BA010AC040915403D6
S113085050915503609156037091570392B780E00D
S11308608111F4CF3FBF921738F4CB01BA01660F60
S1130870771F881F991F0895440F551F661F771F00
S1130880CB01BA016F5F7F4F8F4F9F4F08951F9227
S11308900F920FB60F9211248F939F93AF93BF9330
S11308A08091540390915503A0915603B09157033E
S11308B00196A11DB11D8093540390935503A093F9
S11308C05603B0935703BF91AF919F918F910F90AF
S11308D00FBE0F901F9018951F93CF93DF93EC01D9
S11308E010E004C00E94500521961F5F8881811189
S11308F0F9CF812FDF91CF911F910895AF92BF92CD
S1130900CF92DF92EF92FF920F931F93CF93DF93D7
S1130910CDB7DEB78E01035F1F4FF801A190B190F0
S11309208F01CDB6DEB60E9448052DB73EB7281B11
S113093031090FB6F8943EBF0FBE2DBF8DB79EB7D9
S113094001967C010E944805682F70E09801A5017A
S1130950C7010E940B0A8C01882399F00E94480564
S113096090E00297980133272817390750F4C701FC
S11309700E946C0480E790E00E946C0482E0800F87
S113098005C080E790E00E946C0482E00FB6F89402
S1130990DEBE0FBECDBEDF91CF911F910F91FF90B0
S11309A0EF90DF90CF90BF90AF90089580E80895C6
S11309B08AB180618AB98AB180688AB908958AB196
S11309C088608AB908958AB180628AB908958AB123
S11309D08F7D8AB908959C018EEA91E040E84093A6
S11309E02E0290933402809333026DE272E070938E
S11309F03602609335029093300280932F029093D5
S1130A003202809331021092370284E291E04093E3
S1130A10A4019093AA018093A90143EA51E0509361
S1130A20AC014093AB019093A6018093A5019093F0
S1130A30A8018093A7011092AD01C901A0E0B0E024
S1130A40880F991FAA1FBB1F880F991FAA1FBB1FBE
S1130A509C01AD01220F331F441F551F220F331F6A
S1130A60441F551F60E072E18AE790E00E94B509D7
S1130A70DA01C9010197A109B10989B9892F9A2F0E
S1130A80AB2FBB2780BD0E94D8040E94DF040895C9
S1130A9084E291E00E94D6049091AD01891B0895EF
S1130AA0CF93DF93DFB7F89491E036C09091AD0116
S1130AB02091A401921302C021E001C020E0211181
S1130AC023C09F5F9093AD01E7EAF1E0A081B1817B
S1130AD08C93208131814091AB015091AC0124175A
S1130AE0350751F42091A9013091AA013093A8014E
S1130AF02093A701C1E009C02F5F3F4F3093A801A5
S1130B002093A701C1E001C0C0E090E0CC2321F014
S1130B100E94E304DFBF04C09111C8CFDFBFC0E06F
S1130B208C2FDF91CF9108951F920F920FB60F92E1
S1130B3011242F933F934F935F936F937F938F93DE
S1130B409F93AF93BF93EF93FF938091AD01811176
S1130B5002C091E001C090E0911120C081508093C7
S1130B60AD01E091A501F091A60190812091AB0126
S1130B703091AC01E217F30751F42091A9013091AF
S1130B80AA013093A6012093A50181E009C0319602
S1130B90F093A601E093A50181E002C090E080E01B
S1130BA0882311F09CB902C00E94E704FF91EF91E1
S1130BB0BF91AF919F918F917F916F915F914F9171
S1130BC03F912F910F900FBE0F901F9018951F9279
S1130BD00F920FB60F9211242F933F938F939F93ED
S1130BE0AF93BF93EF93FF932CB180913702909111
S1130BF02E02891302C091E001C090E091111FC040
S1130C008F5F80933702E1E3F2E0A081B1812C93FE
S1130C1080819181209135023091360282179307A9
S1130C2049F480913302909134029093320280937C
S1130C30310205C001969093320280933102FF91F4
S1130C40EF91BF91AF919F918F913F912F910F9011
S1130C500FBE0F901F901895CF93DF93C82FD62FF8
S1130C600E9419038C2F0E9419038D2F0E941903CF
S1130C708D2F0E9419038D2F0E9419038D2F0E941E
S1130C8019038C2F0E9419038C2F0E941903DF91E2
S1130C90CF910895FF920F931F93CF93DF93C82FA3
S1130CA0F62E142FD22F0E9419038C2F0E941903A1
S1130CB08F2D0E941903812F0E9419038D2F0E94EA
S1130CC01903802F0E9419038C2F0E9419038C2F63
S1130CD00E941903DF91CF911F910F91FF90089506
S1130CE0EF92FF920F931F93FA016083F9017083CF
S1130CF0F8018083F70190831F910F91FF90EF908B
S1130D0008950E946F0208952F923F924F925F922E
S1130D106F927F928F929F92AF92BF92CF92DF9207
S1130D20EF92FF920F931F93CF93DF9300D000D0E5
S1130D301F92CDB7DEB7282E3B014A01302E412E3B
S1130D40522EA32E10E0B12CC12CD12C7BC01D82BD
S1130D50CE0105960E94CE028D818037A9F4D394EA
S1130D6084E0D81211C0622D80E70E942C061F92E5
S1130D702F9283E790E09F938F930E947E040F90BD
S1130D800F900F900F90D12C8D818337C9F4C394A9
S1130D9092E0C91215C0C3010E94CE02F301808102
S1130DA01F928F9381E990E09F938F930E947E041A
S1130DB081E0F40180830F900F900F900F90C12C6D
S1130DC08D81823779F4B394F4E0BF120BC0F4013F
S1130DD010828CEA90E09F938F930E947E040F9080
S1130DE00F90B12C8D81843769F51F5F143051F554
S1130DF0CE0104967C018E010D5F1F4F9E012E5F74
S1130E003F4FAE014F5F5F4F632D742D852D9A2D9B
S1130E100E9470060C812B814A81698184E70E94BB
S1130E204A06AF925F924F923F9280EC90E09F937C
S1130E308F930E947E040F900F900F900F900F904D
S1130E400F9010E00E94C102811181CF0F900F908A
S1130E500F900F900F90DF91CF911F910F91FF9002
S1130E60EF90DF90CF90BF90AF909F908F907F9046
S1130E706F905F904F903F902F900895CF93DF93A2
S1130E8000D0CDB7DEB719821A8260E080E895E21F
S1130E900E94EB040E9481060E94510061E087E0F9
S1130EA00E94BB077894F12C00E010E01AC08A81FC
S1130EB0811104C00E948501F82E01C0F9806F2DB4
S1130EC08FE10E945A008F2D0E94D8072FE78AE1F4
S1130ED096E0215080409040E1F700C000000F5F91
S1130EE01F4F043011051CF30E945D00062F172FBD
S1130EF0D82EE92E6F2D70E080E090E00E9450081B
S1130F0021E73DE34CE951E40E940C090E941F08CB
S1130F10C62EB72EA82E992E0E94120428EE33E076
S1130F2040E050E00E94B5095F934F933F932F93A5
S1130F301F92FF929F92AF92BF92CF921F92FF9205
S1130F40EF92DF921F930F938AED90E09F938F931C
S1130F500E947E042D2D3E2DAE014E5F5F4FBE01DB
S1130F606F5F7F4F8F2D0E9484060FB6F894DEBF0B
S1130F700FBECDBF99CF1F93CF93DF93182FD62FDA
S1130F808093580360935903C62F05C061E08C2FEA
S1130F900E942D01CF5F2C2F30E0812F90E08D0F28
S1130FA0911D2817390794F3DF91CF911F9108956C
S1130FB0EF92FF920F931F93CF93DF93D82F6091FB
S1130FC0580370E06F5F7F4F8FEF90E00E94A1099C
S1130FD0C09159037B01FF24870113C02C2F30E0FB
S1130FE0409159038091580390E0840F911D281774
S1130FF039072CF461E08C2F0E949801CF5F0E0D0D
S11310001F1D8D2F90E00817190740F305C060E0FD
S11310108C2F0E949801CF5F2C2F30E04091590310
S11310208091580390E0840F911D281739077CF3B1
S1131030DF91CF911F910F91FF90EF9008950E943F
S1131040D30888F09F5798F0B92F9927B751B0F07B
S1131050E1F0660F771F881F991F1AF0BA95C9F738
S113106014C0B13091F00E940509B1E008950C94C8
S11310700509672F782F8827B85F39F0B93FCCF37B
S1131080869577956795B395D9F73EF490958095B5
S1131090709561957F4F8F4F9F4F0895E89409C0D5
S11310A097FB3EF490958095709561957F4F8F4F97
S11310B09F4F9923A9F0F92F96E9BB279395F695AD
S11310C0879577956795B795F111F8CFFAF4BB0F2B
S11310D011F460FF1BC06F5F7F4F8F4F9F4F16C08F
S11310E0882311F096E911C0772321F09EE8872F19
S11310F0762F05C0662371F096E8862F70E060E0D5
S11311002AF09A95660F771F881FDAF7880F96954D
S1131110879597F908950E94ED0890F09F3748F459
S1131120911116F00C94060960E070E080E89FEBE2
S1131130089526F41B16611D711D811D0C94A208CF
S11311400C94BD08882371F4772321F09850872BE1
S1131150762F07C0662311F499270DC09051862B72
S113116070E060E02AF09A95660F771F881FDAF71F
S1131170880F9695879597F908959F3F31F0915080
S113118020F4879577956795B795880F911D969567
S1131190879597F9089557FD9058440F551F59F0B6
S11311A05F3F71F04795880F97FB991F61F09F3F50
S11311B079F087950895121613061406551FF2CF79
S11311C04695F1DF08C0161617061806991FF1CFC9
S11311D0869571056105089408950E94D308A0F0CE
S11311E0BEE7B91788F4BB279F3860F41616B11D03
S11311F0672F782F8827985FF7CF8695779567951F
S1131200B11D93959639C8F30895E894BB276627D2
S11312107727CB0197F908950E941F090C94900930
S11312200E94820938F00E94890920F0952311F068
S11312300C9479090C947F0911240C9406090E94DA
S1131240CB0870F3959FC1F3950F50E0551F629F33
S1131250F001729FBB27F00DB11D639FAA27F00D0B
S1131260B11DAA1F649F6627B00DA11D661F829F32
S11312702227B00DA11D621F739FB00DA11D621F17
S1131280839FA00D611D221F749F3327A00D611D34
S1131290231F849F600D211D822F762F6A2F112416
S11312A09F5750409AF0F1F088234AF0EE0FFF1F49
S11312B0BB1F661F771F881F91505040A9F79E3FA0
S11312C0510580F00C9479090C9406095F3FE4F30E
S11312D0983ED4F3869577956795B795F795E795F6
S11312E09F5FC1F7FE2B880F911D9695879597F9FF
S11312F0089597F99F6780E870E060E008959FEF94
S113130080EC089500240A94161617061806090698
S1131310089500240A941216130614060506089567
S1131320092E0394000C11F4882352F0BB0F40F4EF
S1131330BF2B11F460FF04C06F5F7F4F8F4F9F4F2F
S1131340089597FB072E16F4009407D077FD09D073
S11313500E94E80907FC05D03EF4909581959F4FC3
S11313600895709561957F4F0895A1E21A2EAA1BE6
S1131370BB1BFD010DC0AA1FBB1FEE1FFF1FA21741
S1131380B307E407F50720F0A21BB30BE40BF50B3E
S1131390661F771F881F991F1A9469F760957095C7
S11313A0809590959B01AC01BD01CF010895EE0F8E
S11313B0FF1F0590F491E02D09940E94FC09A59F5C
S11313C0900DB49F900DA49F800D911D112408953C
S11313D0AA1BBB1B51E107C0AA1FBB1FA617B70757
S11313E010F0A61BB70B881F991F5A95A9F7809573
S11313F09095BC01CD010895A29FB001B39FC00197
S1131400A39F700D811D1124911DB29F700D811D2C
S11314101124911D0895AEE0B0E0E1E1FAE00C94EE
S1131420D60C8C01FA0186E08C831A83098377FF3A
S113143002C060E070E8CB0101979E838D83A9010F
S1131440BF01CE0101960E94370A4D815E8157FD8E
S11314500AC02F813885421753070CF49A01F8010A
S1131460E20FF31F10822E96E4E00C94F20CABE032
S1131470B0E0EDE3FAE00C94C80C6C017B018A0146
S1131480FC0117821682838181FFCCC1CE010196B3
S11314903C01F6019381F70193FD859193FF8191BE
S11314A07F01882309F4BAC1853239F493FD85910B
S11314B093FF81917F01853229F4B60190E00E9467
S11314C02E0CE7CF912C212C312CFFE1F315D8F011
S11314D08B3279F038F4803279F08332A1F4232D01
S11314E020611DC08D3261F0803369F4232D2160A9
S11314F016C0832D8260382EE32DE4603E2E2AC070
S1131500F32DF8601DC037FC2DC020ED280F2A30C4
S113151040F08E32B9F436FC81C1232D2064322E82
S113152019C036FE06C08AE0989E200D1124922E22
S113153011C0EAE02E9E200D1124222EF32DF0621C
S11315403F2E08C08C3621F4832D8068382E02C0CB
S1131550883641F4F70193FD859193FF81917F01D2
S11315608111B3CF982F9F7D9554933028F40C5F4D
S11315701F4F9FE399830DC0833631F0833771F099
S1131580833509F059C021C0F801808189830E5F39
S11315901F4F88248394912C530113C02801F2E037
S11315A04F0E511CF801A080B18036FE03C0692D96
S11315B070E002C06FEF7FEFC5010E94230C4C0165
S11315C08201F32DFF773F2E16C0280122E0420E40
S11315D0511CF801A080B18036FE03C0692D70E073
S11315E002C06FEF7FEFC5010E94180C4C01F32D70
S11315F0F0683F2E820133FC1BC0822D90E08816D8
S11316009906B0F4B60180E290E00E942E0C2A9470
S1131610F4CFF50137FC859137FE81915F01B60166
S113162090E00E942E0C21102A9421E0821A910845
S11316308114910471F7E8C0843611F0893641F5BC
S1131640F80137FE07C060817181828193810C5F4C
S11316501F4F08C060817181072E000C880B990B05
S11316600E5F1F4FF32DFF763F2E97FF09C0909515
S11316708095709561957F4F8F4F9F4FF0683F2EF7
S11316802AE030E0A3010E946A0C882E861845C027
S1131690853731F4232D2F7EB22E2AE030E025C089
S11316A0932D997FB92E8F36C1F018F4883579F0CF
S11316B0B5C0803719F0883721F0B0C0E92FE06158
S11316C0BE2EB4FE0DC0FB2DF460BF2E09C034FE47
S11316D00AC0292F2660B22E06C028E030E005C0DB
S11316E020E130E002C020E132E0F801B7FE07C09B
S11316F060817181828193810C5F1F4F06C060817C
S1131700718180E090E00E5F1F4FA3010E946A0C7C
S1131710882E8618FB2DFF773F2E36FE0DC0232D15
S11317202E7FA22E891458F434FE0BC032FC09C05B
S1131730832D8E7EA82E05C0B82CA32C03C0B82CF4
S113174001C0B92CA4FE0FC0FE01E80DF11D80817B
S1131750803321F49A2D997EA92E09C0A2FE06C0D9
S1131760B394B39404C08A2D867809F0B394A3FC8F
S113177011C0A0FE06C0B21488F4280C922C9B1849
S11317800EC0B21460F4B60180E290E00E942E0C08
S1131790B394F7CFB21418F42B1802C0982C212C50
S11317A0A4FE10C0B60180E390E00E942E0CA2FEBD
S11317B017C0A1FC03C088E790E002C088E590E070
S11317C0B6010CC08A2D867859F0A1FE02C08BE2C6
S11317D001C080E2A7FC8DE2B60190E00E942E0CCD
S11317E0891438F4B60180E390E00E942E0C9A9498
S11317F0F7CF8A94F301E80DF11D8081B60190E0E2
S11318000E942E0C8110F5CF222009F442CEB6019D
S113181080E290E00E942E0C2A94F6CFF601868195
S1131820978102C08FEF9FEF2B96E2E10C94E40CBA
S1131830FC010590615070400110D8F78095909597
S11318408E0F9F1F0895FC0161507040019001109C
S1131850D8F7809590958E0F9F1F08950F931F932F
S1131860CF93DF93FB01238121FD03C08FEF9FEF13
S11318702CC022FF16C0468157812481358142172E
S1131880530744F4A081B1819D012F5F3F4F318301
S113189020838C93268137812F5F3F4F37832683A4
S11318A014C08B01EC01FB010084F185E02D099546
S11318B0892BE1F6D80116968D919C911797019684
S11318C017969C938E931697CE01DF91CF911F911B
S11318D00F910895FA01AA27283051F1203181F19E
S11318E0E8946F936E7F6E5F7F4F8F4F9F4FAF4F24
S11318F0B1E03ED0B4E03CD0670F781F891F9A1F37
S1131900A11D680F791F8A1F911DA11D6A0F711DEA
S1131910811D911DA11D20D009F468943F912AE0F6
S1131920269F11243019305D3193DEF6CF010895DE
S1131930462F4770405D4193B3E00FD0C9F7F6CF0F
S1131940462F4F70405D4A3318F0495D31FD4052D7
S1131950419302D0A9F7EACFB4E0A695979587956D
S113196077956795BA95C9F700976105710508954C
S11319709B01AC010A2E06945795479537952795F8
S1131980BA95C9F7620F731F841F951FA01D089590
S11319902F923F924F925F926F927F928F929F927B
S11319A0AF92BF92CF92DF92EF92FF920F931F9369
S11319B0CF93DF93CDB7DEB7CA1BDB0B0FB6F8941A
S11319C0DEBF0FBECDBF09942A88398848885F845A
S11319D06E847D848C849B84AA84B984C884DF80CB
S11319E0EE80FD800C811B81AA81B981CE0FD11DAF
S11319F00FB6F894DEBF0FBECDBFED010895F89485
S1051A00FFCF12
S1131A023B003800350032003A0037003400310020
S1131A120D0A004D61737465722027702720726568
S1131A227475726E206475744379636C65202564E1
S1131A32004D617374657220277327202564202D5D
S1131A422D3E2069732073657420200052656C65F5
S1131A5261736520636F6E74726F6C202E2E2E007C
S1131A624D617374657220277427202D3E206661B0
S1131A726E2052504D2E2025640053706565643AE1
S1131A8220256C752072706D2C204475747943790D
S1131A92636C653A2025642F3235352C20506F74DF
S1131AA2693A20256C75206D5620287261773A2098
S1131AB22564292C20557074696D653A20256C754E
S1071AC22073000089
S9030000FC
